{
  "_format": "hh-sol-artifact-1",
  "contractName": "June",
  "sourceName": "contracts/June.sol",
  "abi": [
    {
      "inputs": [],
      "stateMutability": "nonpayable",
      "type": "constructor"
    },
    {
      "inputs": [
        {
          "internalType": "uint256",
          "name": "_id",
          "type": "uint256"
        }
      ],
      "name": "approveRecommendation",
      "outputs": [],
      "stateMutability": "nonpayable",
      "type": "function"
    },
    {
      "inputs": [
        {
          "internalType": "uint256",
          "name": "_id",
          "type": "uint256"
        }
      ],
      "name": "getStudentDetails",
      "outputs": [
        {
          "internalType": "string",
          "name": "",
          "type": "string"
        },
        {
          "internalType": "string",
          "name": "",
          "type": "string"
        },
        {
          "internalType": "string",
          "name": "",
          "type": "string"
        },
        {
          "internalType": "bool",
          "name": "",
          "type": "bool"
        }
      ],
      "stateMutability": "view",
      "type": "function"
    },
    {
      "inputs": [
        {
          "internalType": "string",
          "name": "_name",
          "type": "string"
        },
        {
          "internalType": "string",
          "name": "_university",
          "type": "string"
        },
        {
          "internalType": "string",
          "name": "_program",
          "type": "string"
        }
      ],
      "name": "requestRecommendation",
      "outputs": [
        {
          "internalType": "uint256",
          "name": "",
          "type": "uint256"
        }
      ],
      "stateMutability": "nonpayable",
      "type": "function"
    },
    {
      "inputs": [],
      "name": "studentCount",
      "outputs": [
        {
          "internalType": "uint256",
          "name": "",
          "type": "uint256"
        }
      ],
      "stateMutability": "view",
      "type": "function"
    },
    {
      "inputs": [
        {
          "internalType": "uint256",
          "name": "",
          "type": "uint256"
        }
      ],
      "name": "students",
      "outputs": [
        {
          "internalType": "string",
          "name": "name",
          "type": "string"
        },
        {
          "internalType": "string",
          "name": "university",
          "type": "string"
        },
        {
          "internalType": "string",
          "name": "program",
          "type": "string"
        },
        {
          "internalType": "bool",
          "name": "approved",
          "type": "bool"
        }
      ],
      "stateMutability": "view",
      "type": "function"
    }
  ],
  "bytecode": "0x60806040523480156200001157600080fd5b50620000c46040518060400160405280600581526020017f416c6963650000000000000000000000000000000000000000000000000000008152506040518060400160405280600c81526020017f556e6976657273697479204100000000000000000000000000000000000000008152506040518060400160405280601081526020017f436f6d707574657220536369656e6365000000000000000000000000000000008152506200022e60201b60201c565b620001766040518060400160405280600381526020017f426f6200000000000000000000000000000000000000000000000000000000008152506040518060400160405280600c81526020017f556e6976657273697479204200000000000000000000000000000000000000008152506040518060400160405280601681526020017f456c656374726963616c20456e67696e656572696e67000000000000000000008152506200022e60201b60201c565b620002286040518060400160405280600781526020017f436861726c6965000000000000000000000000000000000000000000000000008152506040518060400160405280600c81526020017f556e6976657273697479204300000000000000000000000000000000000000008152506040518060400160405280601681526020017f4d656368616e6963616c20456e67696e656572696e67000000000000000000008152506200022e60201b60201c565b6200071b565b6000600180546200024091906200033c565b905060405180608001604052808581526020018481526020018381526020016000151581525060008083815260200190815260200160002060008201518160000190816200028f9190620005e7565b506020820151816001019081620002a79190620005e7565b506040820151816002019081620002bf9190620005e7565b5060608201518160030160006101000a81548160ff02191690831515021790555090505060016000815480929190620002f890620006ce565b919050555050505050565b6000819050919050565b7f4e487b7100000000000000000000000000000000000000000000000000000000600052601160045260246000fd5b6000620003498262000303565b9150620003568362000303565b92508282019050808211156200037157620003706200030d565b5b92915050565b600081519050919050565b7f4e487b7100000000000000000000000000000000000000000000000000000000600052604160045260246000fd5b7f4e487b7100000000000000000000000000000000000000000000000000000000600052602260045260246000fd5b60006002820490506001821680620003f957607f821691505b6020821081036200040f576200040e620003b1565b5b50919050565b60008190508160005260206000209050919050565b60006020601f8301049050919050565b600082821b905092915050565b600060088302620004797fffffffffffffffffffffffffffffffffffffffffffffffffffffffffffffffff826200043a565b6200048586836200043a565b95508019841693508086168417925050509392505050565b6000819050919050565b6000620004c8620004c2620004bc8462000303565b6200049d565b62000303565b9050919050565b6000819050919050565b620004e483620004a7565b620004fc620004f382620004cf565b84845462000447565b825550505050565b600090565b6200051362000504565b62000520818484620004d9565b505050565b5b8181101562000548576200053c60008262000509565b60018101905062000526565b5050565b601f8211156200059757620005618162000415565b6200056c846200042a565b810160208510156200057c578190505b620005946200058b856200042a565b83018262000525565b50505b505050565b600082821c905092915050565b6000620005bc600019846008026200059c565b1980831691505092915050565b6000620005d78383620005a9565b9150826002028217905092915050565b620005f28262000377565b67ffffffffffffffff8111156200060e576200060d62000382565b5b6200061a8254620003e0565b620006278282856200054c565b600060209050601f8311600181146200065f57600084156200064a578287015190505b620006568582620005c9565b865550620006c6565b601f1984166200066f8662000415565b60005b82811015620006995784890151825560018201915060208501945060208101905062000672565b86831015620006b95784890151620006b5601f891682620005a9565b8355505b6001600288020188555050505b505050505050565b6000620006db8262000303565b91507fffffffffffffffffffffffffffffffffffffffffffffffffffffffffffffffff820362000710576200070f6200030d565b5b600182019050919050565b610e35806200072b6000396000f3fe608060405234801561001057600080fd5b50600436106100575760003560e01c806306ead22e1461005c5780634bb553101461008f578063519e2fd4146100ab57806386a9b364146100db578063e581f9ee1461010e575b600080fd5b610076600480360381019061007191906106d2565b61012c565b60405161008694939291906107aa565b60405180910390f35b6100a960048036038101906100a491906106d2565b610301565b005b6100c560048036038101906100c09190610939565b610395565b6040516100d291906109ef565b60405180910390f35b6100f560048036038101906100f091906106d2565b610466565b60405161010594939291906107aa565b60405180910390f35b610116610682565b60405161012391906109ef565b60405180910390f35b600060205280600052604060002060009150905080600001805461014f90610a39565b80601f016020809104026020016040519081016040528092919081815260200182805461017b90610a39565b80156101c85780601f1061019d576101008083540402835291602001916101c8565b820191906000526020600020905b8154815290600101906020018083116101ab57829003601f168201915b5050505050908060010180546101dd90610a39565b80601f016020809104026020016040519081016040528092919081815260200182805461020990610a39565b80156102565780601f1061022b57610100808354040283529160200191610256565b820191906000526020600020905b81548152906001019060200180831161023957829003601f168201915b50505050509080600201805461026b90610a39565b80601f016020809104026020016040519081016040528092919081815260200182805461029790610a39565b80156102e45780601f106102b9576101008083540402835291602001916102e4565b820191906000526020600020905b8154815290600101906020018083116102c757829003601f168201915b5050505050908060030160009054906101000a900460ff16905084565b60008082815260200190815260200160002060030160009054906101000a900460ff1615610364576040517f08c379a000000000000000000000000000000000000000000000000000000000815260040161035b90610ab6565b60405180910390fd5b600160008083815260200190815260200160002060030160006101000a81548160ff02191690831515021790555050565b600080600180546103a69190610b05565b905060405180608001604052808681526020018581526020018481526020016000151581525060008083815260200190815260200160002060008201518160000190816103f39190610ce5565b5060208201518160010190816104099190610ce5565b50604082015181600201908161041f9190610ce5565b5060608201518160030160006101000a81548160ff0219169083151502179055509050506001600081548092919061045690610db7565b9190505550809150509392505050565b6060806060600080600086815260200190815260200160002060000160008087815260200190815260200160002060010160008088815260200190815260200160002060020160008089815260200190815260200160002060030160009054906101000a900460ff168380546104db90610a39565b80601f016020809104026020016040519081016040528092919081815260200182805461050790610a39565b80156105545780601f1061052957610100808354040283529160200191610554565b820191906000526020600020905b81548152906001019060200180831161053757829003601f168201915b5050505050935082805461056790610a39565b80601f016020809104026020016040519081016040528092919081815260200182805461059390610a39565b80156105e05780601f106105b5576101008083540402835291602001916105e0565b820191906000526020600020905b8154815290600101906020018083116105c357829003601f168201915b505050505092508180546105f390610a39565b80601f016020809104026020016040519081016040528092919081815260200182805461061f90610a39565b801561066c5780601f106106415761010080835404028352916020019161066c565b820191906000526020600020905b81548152906001019060200180831161064f57829003601f168201915b5050505050915093509350935093509193509193565b60015481565b6000604051905090565b600080fd5b600080fd5b6000819050919050565b6106af8161069c565b81146106ba57600080fd5b50565b6000813590506106cc816106a6565b92915050565b6000602082840312156106e8576106e7610692565b5b60006106f6848285016106bd565b91505092915050565b600081519050919050565b600082825260208201905092915050565b60005b8381101561073957808201518184015260208101905061071e565b60008484015250505050565b6000601f19601f8301169050919050565b6000610761826106ff565b61076b818561070a565b935061077b81856020860161071b565b61078481610745565b840191505092915050565b60008115159050919050565b6107a48161078f565b82525050565b600060808201905081810360008301526107c48187610756565b905081810360208301526107d88186610756565b905081810360408301526107ec8185610756565b90506107fb606083018461079b565b95945050505050565b600080fd5b600080fd5b7f4e487b7100000000000000000000000000000000000000000000000000000000600052604160045260246000fd5b61084682610745565b810181811067ffffffffffffffff821117156108655761086461080e565b5b80604052505050565b6000610878610688565b9050610884828261083d565b919050565b600067ffffffffffffffff8211156108a4576108a361080e565b5b6108ad82610745565b9050602081019050919050565b82818337600083830152505050565b60006108dc6108d784610889565b61086e565b9050828152602081018484840111156108f8576108f7610809565b5b6109038482856108ba565b509392505050565b600082601f8301126109205761091f610804565b5b81356109308482602086016108c9565b91505092915050565b60008060006060848603121561095257610951610692565b5b600084013567ffffffffffffffff8111156109705761096f610697565b5b61097c8682870161090b565b935050602084013567ffffffffffffffff81111561099d5761099c610697565b5b6109a98682870161090b565b925050604084013567ffffffffffffffff8111156109ca576109c9610697565b5b6109d68682870161090b565b9150509250925092565b6109e98161069c565b82525050565b6000602082019050610a0460008301846109e0565b92915050565b7f4e487b7100000000000000000000000000000000000000000000000000000000600052602260045260246000fd5b60006002820490506001821680610a5157607f821691505b602082108103610a6457610a63610a0a565b5b50919050565b7f5265636f6d6d656e646174696f6e20616c726561647920617070726f7665642e600082015250565b6000610aa060208361070a565b9150610aab82610a6a565b602082019050919050565b60006020820190508181036000830152610acf81610a93565b9050919050565b7f4e487b7100000000000000000000000000000000000000000000000000000000600052601160045260246000fd5b6000610b108261069c565b9150610b1b8361069c565b9250828201905080821115610b3357610b32610ad6565b5b92915050565b60008190508160005260206000209050919050565b60006020601f8301049050919050565b600082821b905092915050565b600060088302610b9b7fffffffffffffffffffffffffffffffffffffffffffffffffffffffffffffffff82610b5e565b610ba58683610b5e565b95508019841693508086168417925050509392505050565b6000819050919050565b6000610be2610bdd610bd88461069c565b610bbd565b61069c565b9050919050565b6000819050919050565b610bfc83610bc7565b610c10610c0882610be9565b848454610b6b565b825550505050565b600090565b610c25610c18565b610c30818484610bf3565b505050565b5b81811015610c5457610c49600082610c1d565b600181019050610c36565b5050565b601f821115610c9957610c6a81610b39565b610c7384610b4e565b81016020851015610c82578190505b610c96610c8e85610b4e565b830182610c35565b50505b505050565b600082821c905092915050565b6000610cbc60001984600802610c9e565b1980831691505092915050565b6000610cd58383610cab565b9150826002028217905092915050565b610cee826106ff565b67ffffffffffffffff811115610d0757610d0661080e565b5b610d118254610a39565b610d1c828285610c58565b600060209050601f831160018114610d4f5760008415610d3d578287015190505b610d478582610cc9565b865550610daf565b601f198416610d5d86610b39565b60005b82811015610d8557848901518255600182019150602085019450602081019050610d60565b86831015610da25784890151610d9e601f891682610cab565b8355505b6001600288020188555050505b505050505050565b6000610dc28261069c565b91507fffffffffffffffffffffffffffffffffffffffffffffffffffffffffffffffff8203610df457610df3610ad6565b5b60018201905091905056fea2646970667358221220a1a99f469ff6b526bee99e90fe29333dfaa814045c7f146977f5d70c77307ba164736f6c63430008110033",
  "linkReferences": {},
  "deployedLinkReferences": {}
}